:020000040000FA
:1000000083120317A0018316031306309F00FF30ED
:10001000850086018701D128703E84000008080011
:10002000703E8400230880000800FF01051C7F1437
:10003000051CFF140800031783122008A00A8D0076
:1000400083168C130C1483120C08A1002008A00A3C
:100050008D0083168C130C1483120C08A200080068
:100060002108F039003A03194428103A03194528A9
:10007000303A03196128103A03197D28703A0319A0
:100080009928103A0319B528D12822080F390C20D5
:10009000831203138600860E83120317A20E220812
:1000A0000F390C20831203138604103087000508D3
:1000B0001520831203170F39A30021080F391020D0
:1000C000D12822080F390C20831203138600860ED4
:1000D00083120317A20E22080F390C208312031378
:1000E00086042030870005081520831203170F3976
:1000F000A30021080F391020D12822080F390C2025
:10010000831203138600860E83120317A20E2208A1
:100110000F390C2083120313860430308700050842
:100120001520831203170F39A30021080F3910205F
:10013000D12822080F390C20831203138600860E63
:1001400083120317A20E22080F390C208312031307
:1001500086044030870005081520831203170F39E5
:10016000A30021080F391020D12822080F390C20B4
:10017000831203138600860E83120317A20E220831
:100180000F390C20831203138604503087000508B2
:100190001520831203170F39A30021080F391020EF
:0801A000D1281B203028D128D2
:0401A80000340034EB
:02400E00723FFF
:00000001FF
