:020000040000FA
:10000000831603178C13831203178D0183160313B2
:1000100006309F00FF308500860187018D28703EE5
:10002000840000080800703E840023088000080057
:10003000FF01051B7F14851AFF14080083160317A0
:100040000C1483120C08A1008D0A83160C14831261
:100050000C08A2008D0A08002108F039A11F4828C9
:10006000803A03197328103A03197D28303A03198E
:100070008128103A03198528003A03198628703A16
:1000800003198728103A03198B28303A03198C2852
:10009000003A03198D28603A03195028603A542811
:1000A000A21F53288D288D288312031387008312E3
:1000B000031722080F390F20831203138600860EC0
:1000C00083120317A20E22080F390F208312031385
:1000D000860405081820831203170F39A30021088E
:1000E0000F3913208D28A21F76288D2822080F395A
:1000F000A30021080F3913208D28A21F80288D28E6
:100100008D28A21F84288D288D288D288D28211EBA
:100110008A288D288D288D288D281E202C288D2812
:040120000034003473
:02400E00723FFF
:00000001FF
