:020000040000FA
:10000000831603178C13831203178D0183160313B2
:1000100006309F00FF308500860187015728703E1B
:10002000840000080800703E840023088000080057
:10003000FF01051B7F14851AFF14080083160317A0
:100040000C1483120C08A1008D0A83160C14831261
:100050000C08A20008002108F039A11F2F28003A3F
:1000600003195728603A03193728603A3828572867
:100070008312031387008312031722080F390F20FE
:10008000831203138600860E83120317A20E220822
:100090000F390F20831203138604050818208312DA
:1000A00003170F39A30021080F39132057281E20EA
:0400B0002B2857287A
:0400B40000340034E0
:02400E00723FFF
:00000001FF
